{"abi":[{"type":"constructor","inputs":[],"stateMutability":"nonpayable"},{"type":"function","name":"approve","inputs":[{"name":"to","type":"address","internalType":"address"},{"name":"tokenId","type":"uint256","internalType":"uint256"}],"outputs":[],"stateMutability":"nonpayable"},{"type":"function","name":"balanceOf","inputs":[{"name":"owner","type":"address","internalType":"address"}],"outputs":[{"name":"","type":"uint256","internalType":"uint256"}],"stateMutability":"view"},{"type":"function","name":"createNFT","inputs":[{"name":"tokenURI","type":"string","internalType":"string"},{"name":"price","type":"uint256","internalType":"uint256"}],"outputs":[],"stateMutability":"nonpayable"},{"type":"function","name":"getApproved","inputs":[{"name":"tokenId","type":"uint256","internalType":"uint256"}],"outputs":[{"name":"","type":"address","internalType":"address"}],"stateMutability":"view"},{"type":"function","name":"getNFT","inputs":[{"name":"tokenId","type":"uint256","internalType":"uint256"}],"outputs":[{"name":"","type":"tuple","internalType":"struct NFTMarketplace.NFT","components":[{"name":"id","type":"uint256","internalType":"uint256"},{"name":"owner","type":"address","internalType":"address"},{"name":"tokenURI","type":"string","internalType":"string"},{"name":"price","type":"uint256","internalType":"uint256"},{"name":"forSale","type":"bool","internalType":"bool"}]}],"stateMutability":"view"},{"type":"function","name":"getNFTsForSale","inputs":[],"outputs":[{"name":"","type":"tuple[]","internalType":"struct NFTMarketplace.NFT[]","components":[{"name":"id","type":"uint256","internalType":"uint256"},{"name":"owner","type":"address","internalType":"address"},{"name":"tokenURI","type":"string","internalType":"string"},{"name":"price","type":"uint256","internalType":"uint256"},{"name":"forSale","type":"bool","internalType":"bool"}]}],"stateMutability":"view"},{"type":"function","name":"getUserNFTs","inputs":[{"name":"user","type":"address","internalType":"address"}],"outputs":[{"name":"","type":"uint256[]","internalType":"uint256[]"}],"stateMutability":"view"},{"type":"function","name":"isApprovedForAll","inputs":[{"name":"owner","type":"address","internalType":"address"},{"name":"operator","type":"address","internalType":"address"}],"outputs":[{"name":"","type":"bool","internalType":"bool"}],"stateMutability":"view"},{"type":"function","name":"listNFTForSale","inputs":[{"name":"tokenId","type":"uint256","internalType":"uint256"},{"name":"price","type":"uint256","internalType":"uint256"}],"outputs":[],"stateMutability":"nonpayable"},{"type":"function","name":"name","inputs":[],"outputs":[{"name":"","type":"string","internalType":"string"}],"stateMutability":"view"},{"type":"function","name":"nfts","inputs":[{"name":"","type":"uint256","internalType":"uint256"}],"outputs":[{"name":"id","type":"uint256","internalType":"uint256"},{"name":"owner","type":"address","internalType":"address"},{"name":"tokenURI","type":"string","internalType":"string"},{"name":"price","type":"uint256","internalType":"uint256"},{"name":"forSale","type":"bool","internalType":"bool"}],"stateMutability":"view"},{"type":"function","name":"ownerOf","inputs":[{"name":"tokenId","type":"uint256","internalType":"uint256"}],"outputs":[{"name":"","type":"address","internalType":"address"}],"stateMutability":"view"},{"type":"function","name":"purchaseNFT","inputs":[{"name":"tokenId","type":"uint256","internalType":"uint256"}],"outputs":[],"stateMutability":"payable"},{"type":"function","name":"safeTransferFrom","inputs":[{"name":"from","type":"address","internalType":"address"},{"name":"to","type":"address","internalType":"address"},{"name":"tokenId","type":"uint256","internalType":"uint256"}],"outputs":[],"stateMutability":"nonpayable"},{"type":"function","name":"safeTransferFrom","inputs":[{"name":"from","type":"address","internalType":"address"},{"name":"to","type":"address","internalType":"address"},{"name":"tokenId","type":"uint256","internalType":"uint256"},{"name":"data","type":"bytes","internalType":"bytes"}],"outputs":[],"stateMutability":"nonpayable"},{"type":"function","name":"setApprovalForAll","inputs":[{"name":"operator","type":"address","internalType":"address"},{"name":"approved","type":"bool","internalType":"bool"}],"outputs":[],"stateMutability":"nonpayable"},{"type":"function","name":"supportsInterface","inputs":[{"name":"interfaceId","type":"bytes4","internalType":"bytes4"}],"outputs":[{"name":"","type":"bool","internalType":"bool"}],"stateMutability":"view"},{"type":"function","name":"symbol","inputs":[],"outputs":[{"name":"","type":"string","internalType":"string"}],"stateMutability":"view"},{"type":"function","name":"tokenURI","inputs":[{"name":"tokenId","type":"uint256","internalType":"uint256"}],"outputs":[{"name":"","type":"string","internalType":"string"}],"stateMutability":"view"},{"type":"function","name":"transferFrom","inputs":[{"name":"from","type":"address","internalType":"address"},{"name":"to","type":"address","internalType":"address"},{"name":"tokenId","type":"uint256","internalType":"uint256"}],"outputs":[],"stateMutability":"nonpayable"},{"type":"function","name":"userNFTs","inputs":[{"name":"","type":"address","internalType":"address"},{"name":"","type":"uint256","internalType":"uint256"}],"outputs":[{"name":"","type":"uint256","internalType":"uint256"}],"stateMutability":"view"},{"type":"event","name":"Approval","inputs":[{"name":"owner","type":"address","indexed":true,"internalType":"address"},{"name":"approved","type":"address","indexed":true,"internalType":"address"},{"name":"tokenId","type":"uint256","indexed":true,"internalType":"uint256"}],"anonymous":false},{"type":"event","name":"ApprovalForAll","inputs":[{"name":"owner","type":"address","indexed":true,"internalType":"address"},{"name":"operator","type":"address","indexed":true,"internalType":"address"},{"name":"approved","type":"bool","indexed":false,"internalType":"bool"}],"anonymous":false},{"type":"event","name":"NFTCreated","inputs":[{"name":"tokenId","type":"uint256","indexed":true,"internalType":"uint256"},{"name":"owner","type":"address","indexed":true,"internalType":"address"},{"name":"tokenURI","type":"string","indexed":false,"internalType":"string"},{"name":"price","type":"uint256","indexed":false,"internalType":"uint256"}],"anonymous":false},{"type":"event","name":"NFTPurchased","inputs":[{"name":"tokenId","type":"uint256","indexed":true,"internalType":"uint256"},{"name":"buyer","type":"address","indexed":true,"internalType":"address"},{"name":"seller","type":"address","indexed":true,"internalType":"address"},{"name":"price","type":"uint256","indexed":false,"internalType":"uint256"}],"anonymous":false},{"type":"event","name":"Transfer","inputs":[{"name":"from","type":"address","indexed":true,"internalType":"address"},{"name":"to","type":"address","indexed":true,"internalType":"address"},{"name":"tokenId","type":"uint256","indexed":true,"internalType":"uint256"}],"anonymous":false}],"bytecode":{"object":"0x608060405234801561001057600080fd5b506040518060400160405280600981526020016813919513585c9ad95d60ba1b815250604051806040016040528060048152602001634e46544d60e01b815250816000908161005f9190610113565b50600161006c8282610113565b5050506101d1565b634e487b7160e01b600052604160045260246000fd5b600181811c9082168061009e57607f821691505b6020821081036100be57634e487b7160e01b600052602260045260246000fd5b50919050565b601f82111561010e57806000526020600020601f840160051c810160208510156100eb5750805b601f840160051c820191505b8181101561010b57600081556001016100f7565b50505b505050565b81516001600160401b0381111561012c5761012c610074565b6101408161013a845461008a565b846100c4565b6020601f821160018114610174576000831561015c5750848201515b600019600385901b1c1916600184901b17845561010b565b600084815260208120601f198516915b828110156101a45787850151825560209485019460019092019101610184565b50848210156101c25786840151600019600387901b60f8161c191681555b50505050600190811b01905550565b6125cd806101e06000396000f3fe60806040526004361061012a5760003560e01c806352de4ee5116100ab578063a22cb4651161006f578063a22cb46514610361578063b188864914610381578063b2733b39146103a3578063b88d4fde146103c3578063c87b56dd146103e3578063e985e9c51461040357600080fd5b806352de4ee5146102b2578063576f7ea7146102df5780636352211e1461030c57806370a082311461032c57806395d89b411461034c57600080fd5b806323b872dd116100f257806323b872dd146101f3578063265aa621146102135780632682915514610244578063291c73c31461026457806342842e0e1461029257600080fd5b806301ffc9a71461012f57806306fdde0314610164578063081812fc14610186578063095ea7b3146101be578063150bde03146101e0575b600080fd5b34801561013b57600080fd5b5061014f61014a366004611d98565b610423565b60405190151581526020015b60405180910390f35b34801561017057600080fd5b50610179610475565b60405161015b9190611e05565b34801561019257600080fd5b506101a66101a1366004611e18565b610507565b6040516001600160a01b03909116815260200161015b565b3480156101ca57600080fd5b506101de6101d9366004611e4d565b61052e565b005b6101de6101ee366004611e18565b610648565b3480156101ff57600080fd5b506101de61020e366004611e77565b61091a565b34801561021f57600080fd5b5061023361022e366004611e18565b61094b565b60405161015b959493929190611eb4565b34801561025057600080fd5b506101de61025f366004611f87565b610a10565b34801561027057600080fd5b5061028461027f366004611e4d565b610b3c565b60405190815260200161015b565b34801561029e57600080fd5b506101de6102ad366004611e77565b610b6d565b3480156102be57600080fd5b506102d26102cd366004611fe0565b610b88565b60405161015b9190611ffb565b3480156102eb57600080fd5b506102ff6102fa366004611e18565b610bf4565b60405161015b9190612091565b34801561031857600080fd5b506101a6610327366004611e18565b610ce8565b34801561033857600080fd5b50610284610347366004611fe0565b610d48565b34801561035857600080fd5b50610179610dce565b34801561036d57600080fd5b506101de61037c3660046120a4565b610ddd565b34801561038d57600080fd5b50610396610dec565b60405161015b91906120e0565b3480156103af57600080fd5b506101de6103be366004612145565b611049565b3480156103cf57600080fd5b506101de6103de366004612167565b61112e565b3480156103ef57600080fd5b506101796103fe366004611e18565b611166565b34801561040f57600080fd5b5061014f61041e3660046121e3565b611276565b60006001600160e01b031982166380ac58cd60e01b148061045457506001600160e01b03198216635b5e139f60e01b145b8061046f57506301ffc9a760e01b6001600160e01b03198316145b92915050565b60606000805461048490612216565b80601f01602080910402602001604051908101604052809291908181526020018280546104b090612216565b80156104fd5780601f106104d2576101008083540402835291602001916104fd565b820191906000526020600020905b8154815290600101906020018083116104e057829003601f168201915b5050505050905090565b6000610512826112a4565b506000908152600460205260409020546001600160a01b031690565b600061053982610ce8565b9050806001600160a01b0316836001600160a01b0316036105ab5760405162461bcd60e51b815260206004820152602160248201527f4552433732313a20617070726f76616c20746f2063757272656e74206f776e656044820152603960f91b60648201526084015b60405180910390fd5b336001600160a01b03821614806105c757506105c78133611276565b6106395760405162461bcd60e51b815260206004820152603d60248201527f4552433732313a20617070726f76652063616c6c6572206973206e6f7420746f60448201527f6b656e206f776e6572206f7220617070726f76656420666f7220616c6c00000060648201526084016105a2565b6106438383611306565b505050565b6000818152600860205260409020600481015460ff1661069d5760405162461bcd60e51b815260206004820152601060248201526f4e4654206e6f7420666f722073616c6560801b60448201526064016105a2565b80600301543410156106e65760405162461bcd60e51b8152602060048201526012602482015271496e73756666696369656e742066756e647360701b60448201526064016105a2565b600181015460408051808201909152600f81526e283ab931b430b9b4b7339027232a1d60891b60208201526001600160a01b03909116906107279084611374565b61074f60405180604001604052806006815260200165213abcb2b91d60d11b815250336113b9565b6107786040518060400160405280600781526020016629b2b63632b91d60c91b815250826113b9565b6107a460405180604001604052806006815260200165283934b1b29d60d11b8152508360030154611374565b6107d26040518060400160405280600c81526020016b20b6b7bab73a1039b2b73a1d60a11b81525034611374565b6001820180546001600160a01b0319163390811790915560048301805460ff19169055610801908290856113fe565b6000816001600160a01b03163460405160006040518083038185875af1925050503d806000811461084e576040519150601f19603f3d011682016040523d82523d6000602084013e610853565b606091505b50509050806108965760405162461bcd60e51b815260206004820152600f60248201526e151c985b9cd9995c8819985a5b1959608a1b60448201526064016105a2565b336000908152600960209081526040822080546001810182559083529120018490556108c2828561156f565b816001600160a01b0316336001600160a01b0316857fef1fb2bd31f5ed737e6054243d9b5eacd3af967f35af45e8fb844ca6dbbe98f9866003015460405161090c91815260200190565b60405180910390a450505050565b6109243382611633565b6109405760405162461bcd60e51b81526004016105a290612250565b6106438383836113fe565b60086020526000908152604090208054600182015460028301805492936001600160a01b039092169261097d90612216565b80601f01602080910402602001604051908101604052809291908181526020018280546109a990612216565b80156109f65780601f106109cb576101008083540402835291602001916109f6565b820191906000526020600020905b8154815290600101906020018083116109d957829003601f168201915b50505050600383015460049093015491929160ff16905085565b610a1e600780546001019055565b6000610a2960075490565b6040805160a08101825282815233602080830191825282840188815260608401889052600160808501819052600087815260089093529490912083518155915193820180546001600160a01b0319166001600160a01b03909516949094179093559151929350916002820190610a9f90826122eb565b50606082015160038201556080909101516004909101805460ff1916911515919091179055610ace3382611691565b610ad8818461182a565b336000818152600960209081526040808320805460018101825590845291909220018390555182907f82dab408985c3d2faefd82b084de54234c7e481435f0cd9fcee456241d97e87d90610b2f90879087906123aa565b60405180910390a3505050565b60096020528160005260406000208181548110610b5857600080fd5b90600052602060002001600091509150505481565b6106438383836040518060200160405280600081525061112e565b6001600160a01b038116600090815260096020908152604091829020805483518184028101840190945280845260609392830182828015610be857602002820191906000526020600020905b815481526020019060010190808311610bd4575b50505050509050919050565b610bfc611d48565b600082815260086020908152604091829020825160a0810184528154815260018201546001600160a01b0316928101929092526002810180549293919291840191610c4690612216565b80601f0160208091040260200160405190810160405280929190818152602001828054610c7290612216565b8015610cbf5780601f10610c9457610100808354040283529160200191610cbf565b820191906000526020600020905b815481529060010190602001808311610ca257829003601f168201915b50505091835250506003820154602082015260049091015460ff16151560409091015292915050565b6000818152600260205260408120546001600160a01b03168061046f5760405162461bcd60e51b8152602060048201526018602482015277115490cdcc8c4e881a5b9d985b1a59081d1bdad95b88125160421b60448201526064016105a2565b60006001600160a01b038216610db25760405162461bcd60e51b815260206004820152602960248201527f4552433732313a2061646472657373207a65726f206973206e6f7420612076616044820152683634b21037bbb732b960b91b60648201526084016105a2565b506001600160a01b031660009081526003602052604090205490565b60606001805461048490612216565b610de83383836118bd565b5050565b60606000610df960075490565b905060008167ffffffffffffffff811115610e1657610e16611ef7565b604051908082528060200260200182016040528015610e4f57816020015b610e3c611d48565b815260200190600190039081610e345790505b509050600060015b838111610f9e5760008181526008602052604090206004015460ff1615610f8c57600081815260086020908152604091829020825160a0810184528154815260018201546001600160a01b0316928101929092526002810180549293919291840191610ec290612216565b80601f0160208091040260200160405190810160405280929190818152602001828054610eee90612216565b8015610f3b5780601f10610f1057610100808354040283529160200191610f3b565b820191906000526020600020905b815481529060010190602001808311610f1e57829003601f168201915b50505091835250506003820154602082015260049091015460ff1615156040909101528351849084908110610f7257610f726123cc565b60200260200101819052508180610f88906123f8565b9250505b80610f96816123f8565b915050610e57565b5060008167ffffffffffffffff811115610fba57610fba611ef7565b604051908082528060200260200182016040528015610ff357816020015b610fe0611d48565b815260200190600190039081610fd85790505b50905060005b8281101561104057838181518110611013576110136123cc565b602002602001015182828151811061102d5761102d6123cc565b6020908102919091010152600101610ff9565b50949350505050565b3361105383610ce8565b6001600160a01b0316146110ba5760405162461bcd60e51b815260206004820152602860248201527f4f6e6c7920746865206f776e65722063616e206c69737420746865204e465420604482015267666f722073616c6560c01b60648201526084016105a2565b6000811161110a5760405162461bcd60e51b815260206004820152601f60248201527f5072696365206d7573742062652067726561746572207468616e207a65726f0060448201526064016105a2565b60009182526008602052604090912060048101805460ff1916600117905560030155565b6111383383611633565b6111545760405162461bcd60e51b81526004016105a290612250565b61116084848484611983565b50505050565b6060611171826112a4565b6000828152600660205260408120805461118a90612216565b80601f01602080910402602001604051908101604052809291908181526020018280546111b690612216565b80156112035780601f106111d857610100808354040283529160200191611203565b820191906000526020600020905b8154815290600101906020018083116111e657829003601f168201915b50505050509050600061122160408051602081019091526000815290565b90508051600003611233575092915050565b81511561126557808260405160200161124d929190612411565b60405160208183030381529060405292505050919050565b61126e846119b6565b949350505050565b6001600160a01b03918216600090815260056020908152604080832093909416825291909152205460ff1690565b6000818152600260205260409020546001600160a01b03166113035760405162461bcd60e51b8152602060048201526018602482015277115490cdcc8c4e881a5b9d985b1a59081d1bdad95b88125160421b60448201526064016105a2565b50565b600081815260046020526040902080546001600160a01b0319166001600160a01b038416908117909155819061133b82610ce8565b6001600160a01b03167f8c5be1e5ebec7d5bd14f71427d1e84f3dd0314c0f7b2291e5b200ac8c7c3b92560405160405180910390a45050565b610de8828260405160240161138a9291906123aa565b60408051601f198184030181529190526020810180516001600160e01b03166309710a9d60e41b179052611a2a565b610de882826040516024016113cf929190612440565b60408051601f198184030181529190526020810180516001600160e01b031663319af33360e01b179052611a2a565b826001600160a01b031661141182610ce8565b6001600160a01b0316146114375760405162461bcd60e51b81526004016105a29061246a565b6001600160a01b0382166114995760405162461bcd60e51b8152602060048201526024808201527f4552433732313a207472616e7366657220746f20746865207a65726f206164646044820152637265737360e01b60648201526084016105a2565b6114a68383836001611a33565b826001600160a01b03166114b982610ce8565b6001600160a01b0316146114df5760405162461bcd60e51b81526004016105a29061246a565b600081815260046020908152604080832080546001600160a01b03199081169091556001600160a01b0387811680865260038552838620805460001901905590871680865283862080546001019055868652600290945282852080549092168417909155905184937fddf252ad1be2c89b69c2b068fc378daa952ba7f163c4a11628f55a4df523b3ef91a4505050565b6001600160a01b0382166000908152600960205260408120905b815481101561116057828282815481106115a5576115a56123cc565b90600052602060002001540361162b57815482906115c5906001906124af565b815481106115d5576115d56123cc565b90600052602060002001548282815481106115f2576115f26123cc565b906000526020600020018190555081805480611610576116106124c2565b60019003818190600052602060002001600090559055611160565b600101611589565b60008061163f83610ce8565b9050806001600160a01b0316846001600160a01b0316148061166657506116668185611276565b8061126e5750836001600160a01b031661167f84610507565b6001600160a01b031614949350505050565b6001600160a01b0382166116e75760405162461bcd60e51b815260206004820181905260248201527f4552433732313a206d696e7420746f20746865207a65726f206164647265737360448201526064016105a2565b6000818152600260205260409020546001600160a01b03161561174c5760405162461bcd60e51b815260206004820152601c60248201527f4552433732313a20746f6b656e20616c7265616479206d696e7465640000000060448201526064016105a2565b61175a600083836001611a33565b6000818152600260205260409020546001600160a01b0316156117bf5760405162461bcd60e51b815260206004820152601c60248201527f4552433732313a20746f6b656e20616c7265616479206d696e7465640000000060448201526064016105a2565b6001600160a01b038216600081815260036020908152604080832080546001019055848352600290915280822080546001600160a01b0319168417905551839291907fddf252ad1be2c89b69c2b068fc378daa952ba7f163c4a11628f55a4df523b3ef908290a45050565b6000828152600260205260409020546001600160a01b03166118a55760405162461bcd60e51b815260206004820152602e60248201527f45524337323155524953746f726167653a2055524920736574206f66206e6f6e60448201526d32bc34b9ba32b73a103a37b5b2b760911b60648201526084016105a2565b600082815260066020526040902061064382826122eb565b816001600160a01b0316836001600160a01b03160361191e5760405162461bcd60e51b815260206004820152601960248201527f4552433732313a20617070726f766520746f2063616c6c65720000000000000060448201526064016105a2565b6001600160a01b03838116600081815260056020908152604080832094871680845294825291829020805460ff191686151590811790915591519182527f17307eab39ab6107e8899845ad3d59bd9653f200f220920489ca2b5937696c319101610b2f565b61198e8484846113fe565b61199a84848484611abb565b6111605760405162461bcd60e51b81526004016105a2906124d8565b60606119c1826112a4565b60006119d860408051602081019091526000815290565b905060008151116119f85760405180602001604052806000815250611a23565b80611a0284611bbc565b604051602001611a13929190612411565b6040516020818303038152906040525b9392505050565b61130381611c4f565b6001811115611160576001600160a01b03841615611a79576001600160a01b03841660009081526003602052604081208054839290611a739084906124af565b90915550505b6001600160a01b03831615611160576001600160a01b03831660009081526003602052604081208054839290611ab090849061252a565b909155505050505050565b60006001600160a01b0384163b15611bb157604051630a85bd0160e11b81526001600160a01b0385169063150b7a0290611aff90339089908890889060040161253d565b6020604051808303816000875af1925050508015611b3a575060408051601f3d908101601f19168201909252611b379181019061257a565b60015b611b97573d808015611b68576040519150601f19603f3d011682016040523d82523d6000602084013e611b6d565b606091505b508051600003611b8f5760405162461bcd60e51b81526004016105a2906124d8565b805181602001fd5b6001600160e01b031916630a85bd0160e11b14905061126e565b506001949350505050565b60606000611bc983611c70565b600101905060008167ffffffffffffffff811115611be957611be9611ef7565b6040519080825280601f01601f191660200182016040528015611c13576020820181803683370190505b5090508181016020015b600019016f181899199a1a9b1b9c1cb0b131b232b360811b600a86061a8153600a8504945084611c1d57509392505050565b80516a636f6e736f6c652e6c6f67602083016000808483855afa5050505050565b60008072184f03e93ff9f4daa797ed6e38ed64bf6a1f0160401b8310611caf5772184f03e93ff9f4daa797ed6e38ed64bf6a1f0160401b830492506040015b6d04ee2d6d415b85acef81000000008310611cdb576d04ee2d6d415b85acef8100000000830492506020015b662386f26fc100008310611cf957662386f26fc10000830492506010015b6305f5e1008310611d11576305f5e100830492506008015b6127108310611d2557612710830492506004015b60648310611d37576064830492506002015b600a831061046f5760010192915050565b6040518060a001604052806000815260200160006001600160a01b0316815260200160608152602001600081526020016000151581525090565b6001600160e01b03198116811461130357600080fd5b600060208284031215611daa57600080fd5b8135611a2381611d82565b60005b83811015611dd0578181015183820152602001611db8565b50506000910152565b60008151808452611df1816020860160208601611db5565b601f01601f19169290920160200192915050565b602081526000611a236020830184611dd9565b600060208284031215611e2a57600080fd5b5035919050565b80356001600160a01b0381168114611e4857600080fd5b919050565b60008060408385031215611e6057600080fd5b611e6983611e31565b946020939093013593505050565b600080600060608486031215611e8c57600080fd5b611e9584611e31565b9250611ea360208501611e31565b929592945050506040919091013590565b8581526001600160a01b038516602082015260a060408201819052600090611ede90830186611dd9565b6060830194909452509015156080909101529392505050565b634e487b7160e01b600052604160045260246000fd5b60008067ffffffffffffffff841115611f2857611f28611ef7565b50604051601f19601f85018116603f0116810181811067ffffffffffffffff82111715611f5757611f57611ef7565b604052838152905080828401851015611f6f57600080fd5b83836020830137600060208583010152509392505050565b60008060408385031215611f9a57600080fd5b823567ffffffffffffffff811115611fb157600080fd5b8301601f81018513611fc257600080fd5b611fd185823560208401611f0d565b95602094909401359450505050565b600060208284031215611ff257600080fd5b611a2382611e31565b602080825282518282018190526000918401906040840190835b81811015612033578351835260209384019390920191600101612015565b509095945050505050565b8051825260018060a01b0360208201511660208301526000604082015160a0604085015261206f60a0850182611dd9565b9050606083015160608501526080830151151560808501528091505092915050565b602081526000611a23602083018461203e565b600080604083850312156120b757600080fd5b6120c083611e31565b9150602083013580151581146120d557600080fd5b809150509250929050565b6000602082016020835280845180835260408501915060408160051b86010192506020860160005b8281101561213957603f1987860301845261212485835161203e565b94506020938401939190910190600101612108565b50929695505050505050565b6000806040838503121561215857600080fd5b50508035926020909101359150565b6000806000806080858703121561217d57600080fd5b61218685611e31565b935061219460208601611e31565b925060408501359150606085013567ffffffffffffffff8111156121b757600080fd5b8501601f810187136121c857600080fd5b6121d787823560208401611f0d565b91505092959194509250565b600080604083850312156121f657600080fd5b6121ff83611e31565b915061220d60208401611e31565b90509250929050565b600181811c9082168061222a57607f821691505b60208210810361224a57634e487b7160e01b600052602260045260246000fd5b50919050565b6020808252602d908201527f4552433732313a2063616c6c6572206973206e6f7420746f6b656e206f776e6560408201526c1c881bdc88185c1c1c9bdd9959609a1b606082015260800190565b601f82111561064357806000526020600020601f840160051c810160208510156122c45750805b601f840160051c820191505b818110156122e457600081556001016122d0565b5050505050565b815167ffffffffffffffff81111561230557612305611ef7565b612319816123138454612216565b8461229d565b6020601f82116001811461234d57600083156123355750848201515b600019600385901b1c1916600184901b1784556122e4565b600084815260208120601f198516915b8281101561237d578785015182556020948501946001909201910161235d565b508482101561239b5786840151600019600387901b60f8161c191681555b50505050600190811b01905550565b6040815260006123bd6040830185611dd9565b90508260208301529392505050565b634e487b7160e01b600052603260045260246000fd5b634e487b7160e01b600052601160045260246000fd5b60006001820161240a5761240a6123e2565b5060010190565b60008351612423818460208801611db5565b835190830190612437818360208801611db5565b01949350505050565b6040815260006124536040830185611dd9565b905060018060a01b03831660208301529392505050565b60208082526025908201527f4552433732313a207472616e736665722066726f6d20696e636f72726563742060408201526437bbb732b960d91b606082015260800190565b8181038181111561046f5761046f6123e2565b634e487b7160e01b600052603160045260246000fd5b60208082526032908201527f4552433732313a207472616e7366657220746f206e6f6e20455243373231526560408201527131b2b4bb32b91034b6b83632b6b2b73a32b960711b606082015260800190565b8082018082111561046f5761046f6123e2565b6001600160a01b038581168252841660208201526040810183905260806060820181905260009061257090830184611dd9565b9695505050505050565b60006020828403121561258c57600080fd5b8151611a2381611d8256fea2646970667358221220a5f078b9328def3f41456c9ec9dfd3cbabbfe08b24ac3c87804bba35d962543b64736f6c634300081b0033","linkReferences":{}},"methodIdentifiers":{"approve(address,uint256)":"095ea7b3","balanceOf(address)":"70a08231","createNFT(string,uint256)":"26829155","getApproved(uint256)":"081812fc","getNFT(uint256)":"576f7ea7","getNFTsForSale()":"b1888649","getUserNFTs(address)":"52de4ee5","isApprovedForAll(address,address)":"e985e9c5","listNFTForSale(uint256,uint256)":"b2733b39","name()":"06fdde03","nfts(uint256)":"265aa621","ownerOf(uint256)":"6352211e","purchaseNFT(uint256)":"150bde03","safeTransferFrom(address,address,uint256)":"42842e0e","safeTransferFrom(address,address,uint256,bytes)":"b88d4fde","setApprovalForAll(address,bool)":"a22cb465","supportsInterface(bytes4)":"01ffc9a7","symbol()":"95d89b41","tokenURI(uint256)":"c87b56dd","transferFrom(address,address,uint256)":"23b872dd","userNFTs(address,uint256)":"291c73c3"},"id":32}